A01ABU DHABI                                         238Z215AREAE0000000000000000
A02AFGHANISTAN                                       002Z200AFGAF0000000000000000
A03AJMAN                                             239Z215AREAE0000000000000000
A04ALBANIA                                           087Z100ALBAL0000000000000000
A05ALGERIA                                           003Z301DZADZ0000000000000000
A06AMERICAN SAMOA                                    148Z725ASMAS0000000000000000
A07ANDORRA                                           004Z101ANDAD0000000000000000
A08ANGOLA                                            133Z302AGOAO0000000000000000
A09ANGUILLA                                          209Z529AIAAI1980123100000000
A10ANTARTIDE                                         180Z904ATAAQ0000000000000000
A11ANTIGUA E BARBUDA                                 197Z532ATGAG1984123100000000
A12ANTILLE BRITANNICHE                               118Z500BRBBB0000000019751231
A13ANTILLE BRITANNICHE                               118Z521BRBBB1975123119771231
A14ANTILLE BRITANNICHE                               118Z523BRBBB1980123119841231
A15ANTILLE OLANDESI                                  251Z501ANTAN0000000020101010
A16ARABIA MERIDIONALE FEDERAZIONE                    005Z201     0000000019751231
A17ARABIA MERIDIONALE PROTETTORATO                   005Z202     0000000019751231
A18ARABIA SAUDITA                                    005Z203SAUSA0000000000000000
A19ARGENTINA                                         006Z600ARGAR0000000000000000
A20ARMENIA                                           266Z137ARMAM1991092319940101
A21ARMENIA                                           266Z252ARMAM1994010100000000
A22ARUBA                                             212Z501ABWAW0000000000000000
A23ASCENSION                                         227Z340SHNSH0000000000000000
A24AUSTRALIA                                         007Z700AUSAU0000000000000000
A25AUSTRIA                                           008Z102AUTAT0000000000000000
A26AZERBAIGIAN                                       268Z141AZEAZ1991083019940101
A27AZERBAIGIAN                                       268Z253AZEAZ1994010100000000
A28AZZORRE ISOLE                                     234Z128PRTPT0000000000000000
A29BAHAMAS                                           160Z502BHSBS0000000000000000
A30BAHRAIN                                           169Z204BHRBH0000000000000000
A31BANGLADESH                                        130Z249BGDBD1975123100000000
A32BARBADOS                                          118Z522BRBBB1975123100000000
A33BASUTOLAND-SUD AFRICA BRITANNICO                     Z303     0000000019661001
A34BECIUANIA-SUD AFRICA BRITANNICO                      Z304     0000000019661001
A35BELGIO                                            009Z103BELBE0000000000000000
A36BELIZE                                            198Z512BLZBZ0000000000000000
A37BENIN                                             158Z314BENBJ0000000000000000
A38BERMUDA                                           207Z400BMUBM0000000000000000
A39BHUTAN                                            097Z205BTNBT1975123100000000
A40BIELORUSSIA                                       264Z139BLRBY1991082500000000
A41BIRMANIA                                          083Z206MMRMM0000000000000000
A42BOLIVIA                                           010Z601BOLBO0000000000000000
A43BOPHUTHATSWANA                                       Z364     1978123119940101
A44BOSNIA E ERZEGOVINA                               274Z153BIHBA1992030300000000
A45BOTSWANA                                          098Z358BWABW1966100100000000
A46BOUVET ISOLA                                      280Z125BVTBV0000000000000000
A47BRASILE                                           011Z602BRABR0000000000000000
A48BRUNEI DARUSSALAM                                 125Z207BRNBN0000000000000000
A49BULGARIA                                          012Z104BGRBG0000000000000000
A50BURKINA FASO                                      142Z354BFABF0000000000000000
A51BURUNDI                                           025Z305BDIBI0000000000000000
A52CAMBOGIA                                          135Z208KHMKH0000000000000000
A53CAMEROON                                          119Z306CMRCM0000000000000000
A54CAMPIONE D'ITALIA                                 139ITALITAIT0000000000000000
A55CANADA                                            013Z401CANCA0000000000000000
A56CANARIE ISOLE                                     100Z131ESPES0000000000000000
A57CAPO VERDE                                        188Z307CPVCV0000000000000000
A58CAROLINE ISOLE                                    256Z701FSMFM0000000019901222
A59CAYMAN ISOLE                                      211Z530BRBKY1980123100000000
A60CECA (REPUBBLICA)                                 275Z156CZECZ1993010100000000
A61CECOSLOVACCHIA                                    014Z105CZECS0000000019930101
A62CENTROAFRICANA (REPUBBLICA)                       143Z308CAFCF0000000000000000
A63CEUTA                                             246Z131ESPES0000000000000000
A64CHAFARINAS                                        230Z131ESPES0000000000000000
A65CHAGOS ISOLE                                      255Z901IOTIO0000000000000000
A66CHRISTMAS ISOLA                                   282Z702KIRCX0000000000000000
A67CIAD                                              144Z309TCDTD0000000000000000
A68CILE                                              015Z603CHLCL0000000000000000
A69CINA                                              016Z210CHNCN0000000000000000
A70CIPRO                                             101Z211CYPCY0000000000000000
A71CISKEI                                               Z367     1984123119940101
A72CLIPPERTON                                        223Z723PYFFR0000000000000000
A73COCOS  KEELING ISOLA                              281Z212CCKCC0000000000000000
A74COLOMBIA                                          017Z604COLCO0000000000000000
A75COMOROS ISOLE                                     176Z310COMKM0000000000000000
A76CONGO                                             145Z311COGCG0000000000000000
A77CONGO BELGA                                          Z370     1908010119600101
A78CONGO R. DEM.                                     018Z312CODCD1997051700000000
A79COOK ISOLE                                        237Z703COKCK0000000000000000
A80COREA DEL NORD(REPUB DEMOCR POPOLARE)             074Z214PRKKP0000000000000000
A81COREA DEL SUD (REPUBBLICA DI)                     084Z213KORKR0000000000000000
A82COSTA D'AVORIO                                    146Z313CIVCI0000000000000000
A83COSTA DEI PIRATI=TRUCIAL STATES                   244Z215AREAE0000000019751231
A84COSTA RICA                                        019Z503CRCCR0000000000000000
A85CROAZIA                                           261Z149HRVHR1991100800000000
A86CUBA                                              020Z504CUBCU0000000000000000
A87DANIMARCA                                         021Z107DNKDK0000000000000000
A88DIPENDENZE AUSTRALIANE                               Z900ATAAQ0000000000000000
A89DIPENDENZE BRITANNICHE                            245Z901ATAAQ0000000000000000
A90DIPENDENZE CANADESI                                  Z800     0000000000000000
A91DIPENDENZE FRANCESI                               183Z902ATAAQ0000000000000000
A92DIPENDENZE NEOZELANDESI                              Z903ATAAQ0000000000000000
A93DIPENDENZE NORVEGESI ARTICHE                         Z801     0000000000000000
A94DIPENDENZE RUSSE                                     Z802     0000000000000000
A95DIPENDENZE STATUNITENSI                              Z905ATAAQ0000000000000000
A96DIPENDENZE SUDAFRICANE                               Z906ATAAQ0000000000000000
A97DOMINICA                                          192Z526DMADM1980123100000000
A98DOMINICANA (REPUBBLICA)                           063Z505DOMDO0000000000000000
A99DUBAI                                             240Z215AREAE0000000000000000
B00ECUADOR                                           024Z605ECUEC0000000000000000
B01EGITTO                                            023Z336EGYEG0000000000000000
B02EL SALVADOR                                       064Z506SLVSV0000000000000000
B03EMIRATI ARABI UNITI                               030Z215AREAE1975123100000000
B04ERITREA                                           277Z368ERIER1993052400000000
B05ESTONIA                                           257Z144ESTEE1991090600000000
B06ETIOPIA                                           026Z315ETHET0000000000000000
B07FAER OER ISOLE                                    204Z108FROFO0000000000000000
B08FALKLAND ISOLE                                    190Z609FLKFK0000000000000000
B09FIJI                                              161Z704FJIFJ0000000000000000
B10FILIPPINE                                         027Z216PHLPH0000000000000000
B11FINLANDIA                                         028Z109FINFI0000000000000000
B12FRANCIA                                           029Z110FRAFR0000000000000000
B13FUIJAYRAH                                         241Z215AREAE0000000000000000
B14GABON                                             157Z316GABGA0000000000000000
B15GAMBIA                                            164Z317GMBGM0000000000000000
B16GAZA (TERRITORIO DI)                              279Z218     0000000000000000
B17GEORGIA                                           267Z136GEOGE1991090919940101
B18GEORGIA                                           267Z254GEOGE1994010100000000
B19GERMANIA                                          094Z112DEUDE0000000000000000
B20GERMANIA REPUBBLICA DEMOCRATICA                   096Z111DDR  0000000019901003
B21GHANA                                             112Z318GHAGH0000000000000000
B22GIAMAICA                                          082Z507JAMJM0000000000000000
B23GIAPPONE                                          088Z219JPNJP0000000000000000
B24GIBILTERRA                                        102Z113GIBGI0000000000000000
B25GIBUTI                                            113Z361DJIDJ1977123100000000
B26GILBERT E ELLICE (ISOLE)                             Z705KIRKI0000000000000000
B27GIORDANIA                                         122Z220JORJO0000000000000000
B28GOUGH                                             228Z340SHNSH0000000000000000
B29GRECIA                                            032Z115GRCGR0000000000000000
B30GRENADA                                           156Z524GRDGD1977123100000000
B31GROENLANDIA                                       200Z402GRLGL0000000000000000
B32GUADALUPA                                         214Z508GLPGP0000000000000000
B33GUAM                                              154Z706GUMGU0000000000000000
B34GUATEMALA                                         033Z509GLPGT0000000000000000
B35GUIANA FRANCESE                                   123Z607     0000000000000000
B36GUERNSEY C.I.                                     201Z124GUSGG0000000000000000
B37GUERNSEY=ISOLE DEL CANALE                         201Z124GGYGG0000000000000000
B38GUINEA                                            137Z319GINGN0000000000000000
B39GUINEA BISSAU                                     185Z320GNBGW0000000000000000
B40GUINEA EQUATORIALE                                167Z321GINGQ0000000000000000
B41GUYANA                                            159Z606GUYGY0000000000000000
B42HAITI                                             034Z510HTIHT0000000000000000
B43HEARD E MCDONALD ISOLE                            284Z700HMDHM0000000000000000
B44HONDURAS                                          035Z511HNDHN0000000000000000
B45HONG KONG                                         103Z221HKGHK0000000019970701
B46IFNI                                                 Z323     0000000019841231
B47INDIA                                             114Z222INDIN0000000000000000
B48INDONESIA                                         129Z223IDNID0000000000000000
B49IRAN (REPUBBLICA ISLAMICA DI)                     039Z224IRNIR0000000000000000
B50IRAQ                                              038Z225IRQIQ0000000000000000
B51IRIAN OCCIDENTALE                                    Z707     0000000000000000
B52IRLANDA                                           040Z116IRLIE0000000000000000
B53ISLANDA                                           041Z117ISLIS0000000000000000
B54ISOLE AMERICANE DEL PACIFICO                      252Z404UMIUM0000000000000000
B55ISOLE CILENE (PASQUA E SALA Y GOMEZ)                 Z721     0000000000000000
B56ISRAELE                                           182Z226ISRIL0000000000000000
B57ITALIA                                            086ITALITAIT0000000000000000
B58JERSEY C.I.                                       202Z124JEYJE0000000000000000
B59JUGOSLAVIA                                        043Z118YUGYU0000000020030204
B60KAZAKISTAN                                        269Z152KAZKZ1991121619940101
B61KAZAKISTAN                                        269Z255KAZKZ1994010100000000
B62KENYA                                             116Z322KENKE0000000000000000
B63KIRGHIZISTAN                                      270Z142KGHKG1991083119940101
B64KIRGHIZISTAN                                      270Z256KGZKG1994010100000000
B65KIRIBATI                                          194Z731KIRKI1980123100000000
B66KOSOVO                                            291Z160     2008022100000000
B67KUWAIT                                            126Z227KWTKW0000000000000000
B68KYRGYZSTAN                                        270Z256KGZKG0000000000000000
B69LA REUNION (ISOLA)                                247Z324     0000000000000000
B70LAOS (REP DEMOCRATICA POP)                        136Z228LAOLA0000000000000000
B71LESOTHO                                           089Z359LSOLS1966100100000000
B72LETTONIA                                          258Z145LVALV1991090600000000
B73LIBANO                                            095Z229LBNLB0000000000000000
B74LIBERIA                                           044Z325LBRLR0000000000000000
B75LIBIA                                             045Z326LBYLY0000000000000000
B76LIECHTENSTEIN                                     090Z119LIELI0000000000000000
B77LITUANIA                                          259Z146LTULT1991090600000000
B78LUSSEMBURGO                                       092Z120LUXLU0000000000000000
B79MACAO                                             059Z231MACMO0000000000000000
B80MACEDONIA                                         278Z148MKDMK1991091520190211
B81NORD MACEDONIA                                    278Z148MKDMK2019021200000000
B82MACQUARIE (ISOLE)                                    Z708     0000000000000000
B83MADAGASCAR                                        104Z327MDGMG0000000000000000
B84MADEIRA                                           235Z128PRTPT0000000000000000
B85MALAWI                                            056Z328MWIMW0000000000000000
B86MALAYSIA                                          106Z230MYSMY0000000019750808
B87MALAYSIA                                          106Z247MYSMY1975080900000000
B88MALDIVE                                           127Z232MDVMV0000000000000000
B89MALI                                              149Z329MLIML0000000000000000
B90MALTA                                             105Z121MLTMT0000000000000000
B91MAN ISOLA                                         203Z122IMNIM0000000000000000
B92MARCUS (ISOLE)                                       Z709     0000000019751231
B93MARIANNE SETTENTRIONALI ISOLE                     219Z710   MP0000000000000000
B94MAROCCO                                           107Z330MARMA0000000000000000
B95MARSHALL ISOLE                                    217Z711MHLMH0000000000000000
B96MARTINICA                                         213Z513MTQMQ0000000000000000
B97MAURITANIA                                        141Z331MRTMR0000000000000000
B98MAURITIUS ISOLE                                   128Z332MUSMU0000000000000000
B99MAYOTTE                                           226Z360   YT1977123100000000
C00MELILLA                                           231Z131ESPES0000000000000000
C01MESSICO                                           046Z514MEXMX0000000000000000
C02MICRONESIA (STATI FEDERATI DI)                    215Z735   FM1990122200000000
C03MIDWAY ISOLE                                      177Z712   UM0000000000000000
C04MOLDAVIA (REPUBBLICA DI)                          265Z140MDAMD1991082700000000
C05MONGOLIA                                          110Z233MNGMN0000000000000000
C06MONTENEGRO                                        290Z159MNEME2006060300000000
C07MONTSERRAT                                        208Z531MSRMS1980123100000000
C08MOZAMBICO                                         134Z333MOZMZ0000000000000000
C09MYANMAR                                           083Z206MMRMM0000000000000000
C10NAMIBIA                                           206Z300NAMNA0000000000000000
C11NAURU                                             109Z713NRUNR0000000000000000
C12NEPAL                                             115Z234NPLNP0000000000000000
C13NICARAGUA                                         047Z515NICNI0000000000000000
C14NIGER                                             150Z334NERNE0000000000000000
C15NIGERIA                                           117Z335NGANG0000000000000000
C16NIUE                                              205Z714NIUNU0000000000000000
C17NORFOLK ISOLE                                     285Z715   NF0000000000000000
C18NORVEGIA                                          048Z125NORNO0000000000000000
C19NUOVA CALEDONIA                                   253Z716NCLNC0000000000000000
C20NUOVA GUINEA                                         Z718PNGPG0000000019751231
C21NUOVA ZELANDA                                     049Z719NZLNZ0000000000000000
C22NUOVE EBRIDI (ISOLE CONDOMINIO FRANCO-INGLESE)       Z717VUTVU0000000019801231
C23NYASALAND                                            Z369     1907010119640705
C24OMAN                                              163Z235OMNOM0000000000000000
C25PAESI BASSI                                       050Z126NLDNL0000000000000000
C26PAKISTAN                                          036Z236PAKPK0000000000000000
C27PALAU                                             216Z734PLWPW1984123100000000
C28PALESTINA, TERRITORI AUTONOMI                     279Z218PSEPS0000000000000000
C29PANAMA                                            051Z516PANPA0000000000000000
C30PANAMA ZONA DEL CANALE                               Z517     0000000000000000
C31PAPUA NUOVA GUINEA, STATO INDIPENDENTE            186Z730PNGPG1975123100000000
C32PAPUASIA                                             Z720PNGPG0000000019751231
C33PARAGUAY                                          052Z610PRYPY0000000000000000
C34PENON DE ALHUCEMAS                                232Z131ESPES0000000000000000
C35PENON DE VELEZ DE LA GOMERA                       233Z131ESPES0000000000000000
C36PERU'                                             053Z611PERPE0000000000000000
C37PITCAIRN                                          175Z722PCNPN0000000000000000
C38POLINESIA FRANCESE                                225Z723PYFPF0000000000000000
C39POLONIA                                           054Z127POLPL0000000000000000
C40PORTOGALLO                                        055Z128PRTPT0000000000000000
C41PORTORICO                                         220Z518PRIPR0000000000000000
C42PRINCIPATO DI MONACO                              091Z123MCOMC0000000000000000
C43QATAR                                             168Z237QATQA0000000019751231
C44RAS AL KHAIMAH                                    242Z215AREAE0000000000000000
C45REGNO UNITO                                       031Z114GBRGB0000000000000000
C46REUNION                                           247Z324REURE0000000000000000
C47ROMANIA                                           061Z129ROURO0000000000000000
C48RUSSIA (FEDERAZIONE DI)                           262Z135   RU0000000019920331
C49RUSSIA=FEDERAZIONE RUSSA                          262Z154RUSRU1992033100000000
C50RWANDA                                            151Z338RWARW0000000000000000
C51RYUKYU (ISOLE)                                       Z238     0000000019751231
C52SAHARA MERIDIONALE                                   Z362     1977123119841231
C53SAHARA OCCIDENTALE                                166Z339     0000000019841231
C54SAHARA SETTENTRIONALE                                Z363     1977123119841231
C55SAINT KITTS E NEVIS=SAINT CHRISTOPHER E NEVIS     195Z533KNAKN1984123100000000
C56SAINT LUCIA                                       199Z527LCALC1980123100000000
C57SAINT MARTIN SETTENTRIONALE                       222Z508MAFMF0000000000000000
C58SAINT VINCENT E GRENADINE                         196Z528VCTVC1980123100000000
C59SAINT-PIERRE E MIQUELON                           248Z403SPMPM0000000000000000
C60SALOMONE ISOLE                                    191Z724SLBSB0000000000000000
C61SAMOA                                             131Z726WSMWS0000000000000000
C62SAN MARINO                                        037Z130SMRSM0000000000000000
C63SANTA LUCIA                                       199Z527LCALC0000000000000000
C64SANTA SEDE (CITTA' DEL VATICANO)                  093Z106VATVA0000000000000000
C65SANT'ELENA                                        254Z340SHNSH0000000000000000
C66SAO TOME E PRINCIPE                               187Z341STPST1975123100000000
C67SENEGAL                                           152Z343SENSN0000000000000000
C68SERBIA                                            289Z158SRBRS2006060300000000
C69SERBIA E MONTENEGRO                               288Z157SCGRS2003020420060602
C70SEYCHELLES                                        189Z342SYCSC0000000000000000
C71SHARJAH                                           243Z215AREAE0000000000000000
C72SIERRA LEONE                                      153Z344SLESL0000000000000000
C73SIKKIM                                               Z239     0000000019751231
C74SINGAPORE                                         147Z248SGPSG1966100100000000
C75SIRIA                                             065Z240SYRSY0000000000000000
C76SLOVACCHIA                                        276Z155SVKSK1993010100000000
C77SLOVENIA                                          260Z150SVNSI1991100800000000
C78SOMALIA, REPUBBLICA FEDERALE                      066Z345SOMSO0000000000000000
C79SPAGNA                                            067Z131ESPES0000000000000000
C80SRI LANKA                                         085Z209LKALK0000000000000000
C81ST. VINCENTE E LE GRENADINE                       196Z528VCTVC0000000000000000
C82ST.KITTS E NEVIS                                  195Z533KNAKN0000000000000000
C83STATI UNITI                                       069Z404USAUS0000000000000000
C84SUD GEORGIA E SUD SANDWICH                        283Z114SGSGS0000000000000000
C85SUD SUDAN                                         297Z907907SS2011071000000000
C86SUDAFRICANA (REPUBBLICA)                          078Z347   ZA0000000000000000
C87SUDAN                                             070Z348SDNSD0000000000000000
C88SURINAME                                          124Z608SURSR0000000000000000
C89SVALBARD E JAN MAYEN ISOLE                        286Z125SJMSJ0000000000000000
C90SVEZIA                                            068Z132SWESE0000000000000000
C91SVIZZERA                                          071Z133CHECH0000000000000000
C92SWAZILAND                                         138Z349SWZSZ0000000000000000
C93TAGIKISTAN                                        272Z147TJKTJ1991090919940101
C94TAGIKISTAN                                        272Z257TJKTJ1994010100000000
C95TAIWAN                                            022Z217TWNTW0000000000000000
C96TANGANICA                                            Z350     0000000019661001
C97TANZANIA (REPUBBLICA DI)                          057Z357TZATZ1966100100000000
C98TERRITORI FRANCESI DEL SUD                        183Z902   TF0000000000000000
C99TERRITORI PALESTINESI                             279Z161PSEPS2008082100000000
D00TERRITORIO BRITANNICO OCEANO INDIANO              245Z114IOTIO0000000000000000
D01TERRITORIO FRANCESE DEGLI AFAR E DEGLI ISSA          Z346     0000000019771231
D02THAILANDIA                                        072Z241THATH0000000000000000
D03TIMOR-LESTE                                       287Z242TLSTL0000000019781231
D04TOGO                                              155Z351TGOTG0000000000000000
D05TOKELAU                                           236Z727   TK0000000000000000
D06TONGA                                             162Z728TONTO0000000000000000
D07TRANSKEI                                             Z365     1978123119940101
D08TRINIDAD E TOBAGO                                 120Z612TTOTT0000000000000000
D09TRISTAN DA CUNHA                                  229Z340SHNSH0000000000000000
D10TUNISIA                                           075Z352TUNTN0000000000000000
D11TURCHIA                                           076Z243TURTR0000000000000000
D12TURKMENISTAN                                      273Z258TKMTM1994010100000000
D13TURKMENISTAN                                      273Z151TKMTK1991102919940101
D14TURKS E CAICOS ISOLE                              210Z519TCATC0000000000000000
D15TUVALU                                            193Z732TUVTV1980123100000000
D16UCRAINA                                           263Z138UKRUA1991082400000000
D17UGANDA                                            132Z353UGAUG0000000000000000
D18UMM AL QAIWAIN                                    244Z215AREAE0000000000000000
D19UNGHERIA                                          077Z134HUNHU0000000000000000
D20UNIONE REPUBBLICHE SOCIALISTE SOVIETICHE          079Z135   SU0000000019920331
D21URUGUAY                                           080Z613URYUY0000000000000000
D22UZBEKISTAN                                        271Z143UZBUZ1991083119940101
D23UZBEKISTAN                                        271Z259UZBUZ1994010100000000
D24VANUATU                                           121Z733VUTVU1980123100000000
D25VENDA                                                Z366     1980123119940101
D26VENEZUELA                                         081Z614VENVE0000000000000000
D27VERGINI AMERICANE ISOLE                           221Z520VIRVI0000000000000000
D28VERGINI BRITANNICHE ISOLE                         249Z525VGBVG1978123100000000
D29VIETNAM                                           062Z251VNMVN1977123100000000
D30VIETNAM DEL NORD                                     Z245VNMVN0000000019771231
D31VIETNAM DEL SUD                                      Z244VNMVN0000000019771231
D32WAKE ISOLE                                        178Z404UMIUM0000000000000000
D33WALLIS E FUTUNA ISOLE                             218Z729WLFWF0000000000000000
D34YEMEN                                             042Z246YEMYE0000000000000000
D35YEMEN REPUBBLICA DEMOCRATICA POPOLARE                Z250     1975123119900522
D36ZAMBIA                                            058Z355ZMBZM0000000000000000
D37ZANZIBAR                                             Z356     0000000019661001
D38ZIMBABWE                                          073Z337ZWEZW0000000000000000
D39ALAND ISOLE                                       292       AX0000000000000000
D40BONAIRE SAINT EUSTATIUS AND SABA                  295       BQ0000000000000000
D41CURACAO                                           296       CW0000000000000000
D42SAINT BARTHELEMY                                  293       BL0000000000000000
D43SINT MAARTEN (DUTCH PART)                         294       SX0000000000000000
